:020000040800F2
:10000000707A0020B9010008A9DD0008515D0008E0
:100010004592000805130008E5BB01080000000038
:1000200000000000000000000000000053F800087D
:10003000C323000800000000F9DE0008D7670108AC
:10004000D3010008D3010008D3010008D301000840
:10005000D3010008D3010008DF230008D301000802
:10006000D3010008D3010008D3010008D301000820
:10007000D3010008D3010008D3010008D301000810
:10008000D3010008D3010008D3010008D301000800
:10009000D3010008D3010008D3010008D3010008F0
:1000A000D3010008D3010008D3010008D3010008E0
:1000B000D7680108D3010008F1680108D3010008DE
:1000C000D3010008D3010008D3010008D3010008C0
:1000D000D3010008F9710108657201089D720108D9
:1000E000F7230008D301000849DE0008D301000807
:1000F000D3010008D3010008D3010008D301000890
:10010000D3010008D3010008D3010008D30100087F
:10011000F56C0108496D0108D3010008D3010008FE
:10012000D3010008D3010008D3010008D30100085F
:10013000D3010008D3010008D3010008D30100084F
:10014000D3010008D3010008D301000839DE0008FC
:10015000D3010008D3010008D3010008D5720108BB
:10016000D3010008D3010008D3010008D30100081F
:10017000D3010008D3010008D3010008D30100080F
:10018000D3010008DFF80CD000F014FD0048004750
:10019000C5A00208707A0020EFF30980704780F351
:1001A00009887047EFF30880704780F3088870472C
:1001B00040BA7047C0BA70470648804706480047B3
:1001C000FEE7FEE7FEE7FEE7FEE7FEE7FEE7FEE707
:1001D000FEE7FEE70D6801088501000840EA01031B
:1001E0009B0703D009E008C9121F08C0042AFAD2ED
:1001F00003E011F8013B00F8013B521EF9D27047B1
:10020000D2B201E000F8012B491EFBD27047002258
:10021000F6E710B513460A4604461946FFF7F0FF05
:10022000204610BD10B5044604E00B7800F8013BF1
:1002300003B1491C521EF8D2204610BD421C10F8D2
:10024000011B0029FBD1801A7047034611F8012BCE
:1002500000F8012B002AF9D118467047F0B480EA63
:100260000102D40F4200B2EB410F02D2024608460F
:1002700011464A0042D0C30DDDB2C1F3C752AD1AD8
:10028000202D35DAC1F3160141F4000204B15242C7
:10029000C5F1200602FA06F12A411044B3EBD05F03
:1002A00023D0C4B1012DA0EBC35009DCF0BC4FF04A
:1002B000004202EAC352DBB200F5000000F07BBB53
:1002C000400000F1807000EBC350A0F1807040EA64
:1002D000D170490009E0490841EAC071A0EBC35060
:1002E00000F50000400800EBC350F0BC00F05ABB22
:1002F0006142012202EB4101001BF6E7F0BC7047AE
:1003000081F00041AAE780F00040A7E780EA0102FF
:1003100010B502F00043400022D04A001FD0010E69
:1003200001EB1261C0F35600C2F3560240F4000024
:1003300042F40002A0FB022000047F39140400D024
:10034000401C50EA124001D44000491EC2B20C06C3
:1003500004EBD010401C4008802A02D003E00020AB
:1003600010BD20F00100002900DA0020184310BD64
:1003700030B480EA010202F0004530F0004221F082
:10038000004013D090B1C30DD40DC2F31601C0F3D9
:100390001600E41A41F4000140F400027D34914259
:1003A00001D3641C00E04900002C02DA30BC0020BC
:1003B00070474FF400000023914201D3891A034390
:1003C00040084FEA4101F7D151B1914202D14FF0BB
:1003D000004105E002D24FF0010101E06FF00101A0
:1003E00003EBC450284430BC00F0DCBA2DE9FE4FCA
:1003F000804681EA0300C00F0C46009021F00041C6
:1004000023F00045B8EB0200A94105D24046214641
:1004100090461C460B46024623F00040104347D04E
:10042000270DC7F30A00C3F30A510290401A019046
:1004300040286BDAC3F3130040F4801B0098924607
:1004400020B10023D2EB030A63EB0B0B0198594652
:10045000C0F14002504600F074FA06460D46504680
:100460005946019A00F08CFA10EB08006141002413
:1004700087EA115284EAE7731A4340D0009A62B3C4
:10048000019A012A4FEA075215DC001B61EB0201B9
:100490004FF0004202EA0752CDE90042001C41F54C
:1004A000801132462B4600F0C3FA03B0BDE8F08F4E
:1004B00040462146F9E7001B61EB0201001C41F5B3
:1004C000801300185B412018A2F5001747EB0301C9
:1004D00040EAD570B6196D4111E06D084FEA360655
:1004E00045EAC0754FEA0752001B61EB0201001C90
:1004F00041F5801149084FEA300000195141324658
:100500002B4603B0BDE8F04F00F083BA00980122FB
:1005100040000023D0EB020263EBE0730098214619
:100520004FEAE074B8EB000061EB0401E9E783F007
:1005300000435BE781F0004158E72DE9FE4F81EA77
:10054000030404F0004421F0004100944FF0000B3C
:1005500023F0004350EA01045ED052EA03045BD06A
:10056000C3F30A54C1F30A552C44A4F2F3340194A2
:10057000A0FB0254C1F3130141F48011C3F3130330
:1005800043F4801301FB024400FB034E840A970AE4
:1005900044EA815447EA8357A4FB076802958D0A11
:1005A00005FB07854FEA932C04FB0C542705029D9D
:1005B0004FEA065847EA1637B5EB08056EEB070C0D
:1005C000870E920E47EA811742EA8312A7FB0201C7
:1005D000B6EB0B0164EB00042B0D43EA0C335E1801
:1005E00044EB1C50DA465146E7FB0201C5F3130405
:1005F0004FEA0B3343EA14534FEA0432019C43EAB7
:100600000603A4F10C040294009CCDE900B400F0B0
:100610000FFA03B0BDE8F08F00200146F9E72DE99D
:10062000F04D81EA030404F0004B21F0004514462C
:100630004FF0000A23F0004150EA050220D054EAAE
:1006400001021DD0C5F30A570246C5F31303C1F3D7
:100650001300C1F30A5640F4801543F48013A7EB4E
:100660000608101BD64608F2FD3873EB050002D3CE
:1006700008F1010801E092185B41B8F1000F03DABC
:1006800000200146BDE8F08D00204FF480110646A1
:1006900084460EE0171B73EB050705D3121B63EBB3
:1006A000050306434CEA010C49084FEA3000921852
:1006B0005B4150EA0107EDD152EA030012D082EA11
:1006C000040083EA0501084305D0101BAB4106D2A4
:1006D0000122002306E000224FF0004302E06FF009
:1006E000010253101AEB06004CEB085110EB0A0004
:1006F00041EB0B01BDE8F04D00F08BB9C10F80EA72
:10070000E0700844CA079623002100F054B99623EC
:100710000022114600F04FB90EB5C10F80EAE0701B
:100720000844CA07002140F233438DE80E000A4610
:100730000B4600F07DF903B000BD0EB540F2334129
:1007400002910021CDE900110A460B4600F070F934
:1007500003B000BD00F0004220F00040C10DC0F326
:10076000160040F400007F2901DA00207047962926
:1007700003DCC1F19601C84001E096398840002AA7
:10078000F4D04042704770B5C1F30A5201F0004501
:100790000024C1F3130140F2FF3341F480119A4267
:1007A00001DA002070BD40F233439A42A2F2334294
:1007B00003DC524200F0D4F800E090402C43F1D02A
:1007C000404270BDC1F30A5210B5C1F3130140F2AB
:1007D000FF3341F480119A4201DA002010BD40F24B
:1007E00033439A42A2F2334203DC524200F0B8F89B
:1007F00010BD904010BD00F0004230F000400AD023
:10080000C10D01F56071C0F3160042EA0151C20842
:1008100040071143704700200146704730B5041E61
:1008200071F1000404DB4FF00044404264EB01012D
:10083000141E73F1000405DB1C464FF000435242C6
:1008400063EB04038B4208BF824230BD30B5041E07
:1008500071F1000404DB4FF00044404264EB0101FD
:10086000141E73F1000405DB1C464FF00043524296
:1008700063EB0403994208BF904230BD01F000438E
:1008800030B421F0004150EA010206D00A0DA2F571
:100890006072C1F31301002A02DC30BC00207047F3
:1008A000440F44EAC104C100E01830BC00EBC25060
:1008B00000F078B830B50B46014600202022012414
:1008C00009E021FA02F59D4205D303FA02F5491B1E
:1008D00004FA02F52844151EA2F10102F1DC30BD34
:1008E0002DE9F05F0546002092469B468846064665
:1008F000814640241BE0284641464746224600F0F8
:100900002FF853465A46C01A914110D31146184643
:10091000224600F016F82D1A67EB01084F462246D2
:100920000120002100F00DF817EB00094E41201EB8
:10093000A4F10104DFDC484631462A464346BDE8BF
:10094000F09F202A04DB203A00FA02F100207047D1
:100950009140C2F1200320FA03F3194390407047FD
:10096000202A04DB203A21FA02F00021704721FA04
:1009700002F3D040C2F1200291400843194670476B
:10098000202A06DBCB17203A41FA02F043EAE07353
:1009900006E041FA02F3D040C2F120029140084340
:1009A000194670470029A8BF7047401C490008BF7E
:1009B00020F00100704710B4B0FA80FC00FA0CF08F
:1009C00050EA010404BF10BC704749B1CCF12004C7
:1009D00021FA04F411FA0CF118BF01212143084354
:1009E000A3EB0C01CB1D4FEA00614FEA102042BF80
:1009F000002010BC704700EBC35010440029A4BF76
:100A000010BC7047401C490008BF20F0010010BC1A
:100A1000704710B5141E73F1000408DA401C41F150
:100A2000000192185B411A4301D120F0010010BD72
:100A30002DE9F04D92469B4611B1B1FA81F202E0E8
:100A4000B0FA80F220329046FFF77BFF04460F4653
:100A500040EA0A0041EA0B0153465A46084313D0C4
:100A6000114653EA010019D0C8F140025046FFF781
:100A700077FF05460E46504659464246FFF761FF4E
:100A8000084305D0012004E020463946BDE8F08D3A
:100A90000020054346EAE0762C4337430A98630575
:100AA000E40AA0EB08000022FD0A44EA47540A3099
:100AB00002D500200146E9E7010510196941DDE989
:100AC000084500196941BDE8F04DA2E770B521F075
:100AD000004303430CD0C1F30A550024D5EB0405B1
:100AE00064EB0403D617AD1AB34102DB00200146C4
:100AF00070BD201841EB025170BD00002DE9F0419E
:100B0000054621F000400C46284309D0C4F30A50A2
:100B100040F23341884205DD28462146BDE8F08198
:100B20002846FBE740F2FE31884210DC0CDB4FEA3E
:100B3000043040EA155050EA053105D0104804F061
:100B4000004101430020E9E700200146E6E7A0F26A
:100B500033404642C6F1400228462146FFF7F1FEE7
:100B600007468846284621463246FFF7F9FE4346A7
:100B70003A46FFF74EFF3246BDE8F041FFF7E1BECF
:100B80000000F03FC1F30A52C1F3130140F2FF33FA
:100B900041F480119A4202DA00200146704740F287
:100BA00033439A42A2F2334202DC5242FFF7D8BEEC
:100BB000FFF7C7BE064C074D06E0E06840F00103B2
:100BC00094E8070098471034AC42F6D3FFF7DEFAFA
:100BD00064E4040884E404082DE9F04D00231A4677
:100BE0001B1A8A4103DB00200146BDE8F08DC1F3EA
:100BF0000A52C1F3130141F480154FF0000BD107E5
:100C000002D100186D41521E0027044640F2FF1128
:100C1000384601EB620A3E468046024600204FF409
:100C20008011FFF79DFEC2197141BB1846EB010010
:100C3000B4EB030C75EB000C04D3E41A65EB000570
:100C400017460E46241908F101006D4180463428EC
:100C5000E3DDF91946EB0600091BA84103D24FF06A
:100C6000FF32134601E0002213461BEB070046EB60
:100C70000A51BDE8F04DFFF7CCBE70B58D1810F8E5
:100C8000014B14F0030201D110F8012B231106D1FE
:100C900010F8013B03E010F8016B01F8016B521EE4
:100CA000F9D1ABB110F8012B04F00C048A1A0C2C0A
:100CB00003D0A2EB84129B1C08E010F8014BA2EBBE
:100CC0000422F8E712F8014B01F8014B5B1EF9D53D
:100CD000A942D4D3002070BD10B5044604F1200110
:100CE000C8B2002100F05CF910BD2DE9F0410546C5
:100CF0000C460026102D01DA102C01DBBDE8F08136
:100D0000274604EBD77149109031C8B200F040F982
:100D1000064604F0010020B906F0F00040EA05069E
:100D200003E0304665F31F10C6B2274604EBD771C7
:100D300049109031C8B2314600F032F904F1200177
:100D4000C8B2302100F02CF900BFD7E72DE9F041FF
:100D500005460C460026102D01DA102C01DBBDE8FB
:100D6000F081274604EBD77149109031C8B200F0EA
:100D70000FF9064604F0010020B906F0F00040EA41
:100D8000050603E0304665F31F10C6B2274604EBA4
:100D9000D77149109031C8B2314600F001F900BF57
:100DA000DDE700002DE9FC5F80468A4600200190C7
:100DB000C14657463A4649462DA01BF001FDB9F100
:100DC000030F01DA042F01DBBDE8FC9F334800F874
:100DD00007904946324800F097F983463946314832
:100DE00000F092F9054600240AE005EB85002D4944
:100DF0000844401C065D3046FFF76EFF601CC4B21D
:100E0000042CF2DB0121802000F0CAF8642015F0E8
:100E100099FC002412E00BEB8B0021490844401C94
:100E2000005D009005EB85001E490844401C065DEE
:100E300031460098FFF78AFF601CC4B2042CEADB3D
:100E40000121802000F0ACF800240DE005EB8500C6
:100E500014490844401C065D06F12001C8B2302147
:100E600000F09EF8601CC4B2042CEFDB00BFABE7BF
:100E70005B41444E343630345D5377697463682087
:100E8000496E70757420256420746F206F757470BE
:100E90007574202564200D0A00000000171300203F
:100EA000F4120020031300202DE9F04705464FF00F
:100EB000000A1F491FA01BF083FC032D01DBBDE8C6
:100EC000F08700F045F8642015F03CFC002426E093
:100ED0001C48005DA84200D11FE01A48055529466C
:100EE000194800F011F90746002613E007EB8700C8
:100EF00015490844401C10F8068004EB840013498F
:100F00000844401C10F8069049464046FFF7EDFEA5
:100F1000701CC6B2042EE9DB00BF601CC4B2042CF6
:100F2000D6DB0121802000F03BF800BFC7E70000BE
:100F30002C6C04085B41444E343630345D25730D0F
:100F40000A00000017130020F412002003130020F1
:100F500010B500240CE00020074901EBC401087122
:100F600004F12001C8B2002100F01AF8601C84B21C
:100F7000102CF0DB10BD00001054002001460429A5
:100F800001DB042070470148405CFBE71713002099
:100F900010B5044622469621032026F0B7FB10BD6B
:100FA0002DE9F04706460F4603240AE06000903022
:100FB00000F0FF093B4632464946032026F0B5FBC8
:100FC000641C042CF2DB802E01D1BDE8F0870324E1
:100FD00012E06000903000F0FF09324649460320DD
:100FE00026F094FB8046B84505D03B46324649463C
:100FF000032026F09AFB641C042CEADB0A480078E4
:1010000080B9032508E0902000EB4500C1B2FF2223
:10101000032026F07BFB6D1C042DF4DB012002492C
:10102000087000BF00BFD0E71C1300200146C86C49
:1010300080B270470246002013680B400BB10120BC
:1010400000E000207047F0B504460D460020002166
:10105000092D11DDE068A5F10A0606EB4607072613
:1010600006FA07F18843A5F10A0606EB460603FADD
:1010700006F10843E0600CE0206905EB4507072610
:1010800006FA07F1884305EB450603FA06F1084323
:101090002061072A0FDA606B561E06EB86071F26B3
:1010A00006FA07F18843561E06EB860605FA06F196
:1010B0000843606322E00D2A0FDA206BD61F06EB8F
:1010C00086071F2606FA07F18843D61F06EB860619
:1010D00005FA06F10843206310E0E06AA2F10D066C
:1010E00006EB86071F2606FA07F18843A2F10D06D4
:1010F00006EB860605FA06F10843E062F0BD81685A
:1011000041F080418160704710B502460423002001
:1011100007E000EB8004145D8C4200D103E0441C26
:10112000E0B29842F5DB00BF10BD0246002000216E
:101130000BE000EB800358001C23A3EB810342FA71
:1011400003F303F00F031844491C0829F1DB70472F
:101150002DE9F04FADF2546D83460027B8460024C8
:1011600000224149414823F01DF938B140A01BF04D
:1011700027FB00200DF2546DBDE8F08F594641A0C9
:101180001BF01EFB47A3384A4BA10DF234601BF045
:1011900027FB13220DF234610DF2044023F034F9E1
:1011A0000646002E4ED14FF4BA54E11704EB91518C
:1011B0008912A4EB812141B92046E11704EB91513A
:1011C000C1F38F254FF0000A0EE02046E11704EB33
:1011D00091518912491C8DB2E11704EB915189128A
:1011E000A4EB81211FFA81FA4FF43A7800271BE023
:1011F000681EB84201D1D14601E04FF4806908F57C
:10120000C47081B24B4601AA012022F011FB08EB09
:1012100009001FFA80F80DF5C6634A4601A90DF2D0
:10122000044023F037FB7F1CAF42E1DB4FF4005357
:101230004FF4C4720DF2346121A0CDF800801BF090
:10124000BFFA0AE00DF2346128A01BF0B9FA0DF2E2
:10125000044022F0DCFF00208CE70DF2044022F075
:10126000D6FF012086E7000094110020C83F00202F
:101270003120665F6D6F756E74206572726F720DCE
:101280000A0000004261636B5570557365725365C7
:101290007474696E67546F554469736B2C25640DC3
:1012A0000A00000056697044726976652F536176B2
:1012B000652E62696E000000257325730000000032
:1012C0006F70656E2066696C652025732073756389
:1012D0006365737365642C533A256C642C543A250A
:1012E0006C642C523A256C640D0A00006F70656EB8
:1012F0002066696C65202573206572726F720D0A15
:101300000000000002A01BF05BFA00BFFEE7000037
:101310004275734661756C745F48616E646C65728A
:101320000D0A000003461A11092A03DC02F13000FD
:10133000087002E002F15700087003F00F02092A5A
:1013400003DC02F13000487002E002F157004870FF
:10135000084670470020A5490870FF204870887033
:10136000C8700871487188710020C8710D2008721A
:1013700094204872022088720720C87200200873E7
:1013800007204873002088730220C8733220087435
:1013900011204874012088740320C87481200875C6
:1013A0001E20487517208875AA20C875EA2008767F
:1013B000C1204876E5208876A320C8765720087794
:1013C0004E2048779C2088772320C8771D2081F8FD
:1013D0002000502081F82100542081F82200FF20B5
:1013E00081F8230081F82400802081F825008120E5
:1013F00081F82600402081F82700812081F828000C
:10140000802081F82900952081F82A00002081F8A9
:101410002B00A92081F82C00C02081F82D00B320DA
:1014200081F82E00002081F82F00D12081F83000B3
:10143000C02081F831008B2081F83200C02081F873
:101440003300952081F83400402081F83500642075
:1014500081F836002A2081F83700002081F8380012
:10146000982081F83900512081F83A00002081F855
:101470003B002A2081F83C00402081F83D003020CC
:1014800081F83E00702081F83F00132081F8400071
:10149000002081F8410081F8420081F8430081F882
:1014A000440081F8450081F846001E2081F847007D
:1014B000002081F8480081F8490081F84A00FF20A7
:1014C00081F84B00002081F84C00202081F84D006D
:1014D000422081F84E005A2081F84F00202081F8E8
:1014E000500081F85100312081F85200362081F8F7
:1014F0005300322081F85400302081F85500372005
:1015000081F85600302081F857000A2081F85800F1
:10151000202081F85900002081F85A0081F85B00F2
:1015200081F85C00FC2081F85D00002081F85E00FD
:101530004C2081F85F00452081F86000442081F84C
:101540006100202081F86200312081F863003220A0
:1015500081F86400382081F86500302081F8660049
:10156000582081F86700312081F86800302081F828
:101570006900322081F86A00342081F86B00002075
:1015800081F86C0081F86D0081F86E00FD2081F813
:101590006F00002081F87000382081F8710056201B
:1015A00081F872001E2081F87300452081F87400D4
:1015B0000A2081F87500002081F876000A2081F861
:1015C0007700202081F8780081F8790081F87A008E
:1015D00081F87B0081F87C0081F87D00002081F893
:1015E0007E00802081F87F0070470000B42B00202F
:1015F0001CB502208DF8050001208DF804000020A4
:101600008DF806008DF807000D48007809280BDAE0
:101610000C480B49097830F8110000900A48084935
:10162000097850F8214000E01CBD6946204603F0CF
:10163000C3F9009881B2204603F032FA00BFF3E705
:10164000E8140020BC730408747304081CB502205D
:101650008DF8050001208DF8040000208DF80600AB
:101660008DF807000D48007809280BDA0C480B4963
:10167000097830F8110000900A480849097850F8B4
:10168000214000E01CBD6946204603F095F9009812
:1016900081B2204603F004FA00BFF3E7E81400200B
:1016A000CE730408987304080021002004E0064A61
:1016B000125C0A44D1B2401C7F28F8DB4A42024B3C
:1016C00083F87F2070470000B42B00202DE9F04FF5
:1016D0008BB00746884691469A4601200A904FF003
:1016E000000B851E861E002009900890002416E03D
:1016F0007A4830F82400B84201DD254611E07748E9
:1017000030F82400B84209D1744800EB84004088C6
:10171000AAF8000025464FF0010B02E0641C092CDA
:10172000E6DB00BFB5F1FF3F02D100200A9055E093
:10173000BBF1000F52D1002D4CDD684931F8252056
:10174000691E664B33F82110501AFEF7E5FFCDE90C
:101750000401624931F82510C81BFEF7DDFF0022A5
:101760005F4BCDE90001FEF7E8FECDE90201DDE9BE
:101770000423FEF754FFCDE90601FFF77FF8099037
:101780004FF07E500999FEF7BBFD691E534A02EBEC
:10179000810102904888FEF7BAFF01900299FEF796
:1017A000B5FD4E4901EB850104904888FEF7AFFF77
:1017B00002900999FEF7AAFD03900499FEF74EFDE9
:1017C0000590FFF718F8CDE9060134F009FBAAF8F7
:1017D000000003E041484088AAF800004FF0000BE9
:1017E000002416E03F4830F82400404501DD26463D
:1017F00011E03C4830F82400404509D1394800EB5D
:1018000084004088A9F8000026464FF0010B02E052
:10181000641C092CE6DB00BFB6F1FF3F02D10020BB
:101820000A9056E0BBF1000F53D1002E4DDD2D493B
:1018300031F82620711E2B4B33F82110501AFEF779
:101840006BFFCDE90401274931F82610A1EB080010
:10185000FEF762FF0022224BCDE90001FEF76DFE8C
:10186000CDE90201DDE90423FEF7D9FECDE9060149
:10187000FFF704F808904FF07E500899FEF740FDFE
:10188000711E184A02EB810102904888FEF73FFF63
:1018900001900299FEF73AFD124901EB860104908E
:1018A0004888FEF734FF02900899FEF72FFD039059
:1018B0000499FEF7D3FC0590FEF79DFFCDE90601E4
:1018C00034F08EFAA9F8000003E006484088A9F831
:1018D00000000A980BB0BDE8F08F00000003002064
:1018E0000000F03F2403002070B5034600200024D0
:1018F0000025152B2DD2DFE803F00B0C0D0E0F1079
:1019000014151617181C1D1E1F2024252627280015
:1019100020E01FE000BF00BF00BF0020022405251B
:1019200018E017E000BF00BF00BF012007240A2510
:1019300010E00FE000BF00BF00BF02200C240F2505
:1019400008E007E000BF00BF00BF032011241425FA
:1019500000E000BF00BF01B10C7002B1157070BD96
:1019600070B50346002000250024142B2CD2DFE89C
:1019700003F00A0B0C0D0F101112161718191D1E6B
:101980001F202425262720E000BF00BF00201CE0E8
:101990001BE000BF00BF00200525072415E014E070
:1019A00000BF00BF012009250B240EE00DE000BFA1
:1019B00000BF02200D250F2407E006E000BF00BF96
:1019C00003201125132400E000BF00BF01B10D70FA
:1019D00002B1147070BD70B50346002000240025CC
:1019E000052B0FD2DFE803F0030405090A000AE023
:1019F00000BF00200124022505E000BF02200324CF
:101A0000042500E000BF00BF01B10C7002B11570E9
:101A100070BD70B503460020002500241A2B35D276
:101A2000DFE803F00D0E0F10111214151617181C15
:101A30001D1E1F2024252627282C2D2E2F3026E082
:101A400000BF00BF00BF00BF002020E01FE000BFBC
:101A500000BF00BF002007250A2418E017E000BFE0
:101A600000BF00BF01200C250F2410E00FE000BFD5
:101A700000BF00BF02201125142408E007E000BFCA
:101A800000BF00BF03201625192400E000BF00BFDF
:101A900001B10D7002B1147070BD70B50346002025
:101AA00000240025092B1BD2DFE803F00506070BF5
:101AB0000C101115160014E000BF002001240225AF
:101AC0000FE000BF0120032404250AE000BF02202C
:101AD0000524062505E000BF03200724082500E0B3
:101AE00000BF00BF01B10C7002B1157070BD2DE9CF
:101AF000F04105460E4614463146284603F09CFB4D
:101B0000A04201DD204603E03146284603F094FB65
:101B100007463A463146284600F002F8BDE8F08113
:101B20002DE9F74F8CB005460E462A200B90082071
:101B30000A904FF0FF3002900AA80BA902ABCDE942
:101B40000010314628460E9A03F008FC814642F206
:101B5000107099FBF0F91FFA89F88E4981F83680E8
:101B60004FEA282081F837002846E91705EB116174
:101B7000C1F3072AE91705EB11610912A5EB012151
:101B800001F0FF0B3046F11706EB1161C1F307219D
:101B90000991F11706EB11610912A6EB0121C9B2F7
:101BA00008917C4880F838B0BDF82800794981F860
:101BB0003900084690F83A0000F00F0081F83A002A
:101BC000084690F83A0040EA0A1081F83A000846C0
:101BD00090F83A0000F0F00081F83A00084690F8DA
:101BE0003A00BDF82810C1F303210843694981F880
:101BF0003A00089881F83B00BDF82C0081F83C00C1
:101C0000084690F83D0000F00F0081F83D000846BE
:101C100090F83D10099841EA00105E4981F83D00B6
:101C2000084690F83D0000F0F00081F83D000846BD
:101C300090F83D00BDF82C10C1F30321084355492D
:101C400081F83D000298401C002877D0029800EBF4
:101C50008000514901EB800000794E4981F83E0037
:101C6000029800EB80004C4901EB800080794949E3
:101C700081F83F0000200790029800EB8000464961
:101C800001EB8000807B00F00F030422114607A8BF
:101C90000EF0B2FE029800EB80003F4901EB80009D
:101CA000007C00F00F030422002107A80EF0A4FE20
:101CB0009DF81C00374981F84000002007900298E9
:101CC00000EB8000344901EB80008088C0F30123E1
:101CD0000222062107A80EF08FFE029800EB80007A
:101CE0002D4901EB8000C088C0F3012302220421AA
:101CF00007A80EF081FE029800EB8000264901EB58
:101D00008000C089C0F301230222114607A80EF00B
:101D100073FE029800EB80001F4901EB8000008AEF
:101D2000C0F301230222002107A80EF065FE9DF8F2
:101D30001C00184981F8410000200790002403E0AE
:101D4000002003A90855641C102CF9DB33462A46F1
:101D500012A103A81AF044FD002405E0002104F1BB
:101D60005F000C4A1154641C0E2CF7DB03A8FEF72D
:101D700065FA0746002406E003A8015D04F15F0050
:101D8000044A1154641CBC42F6DBFFF78DFC0FB013
:101D9000BDE8F08FB42B0020FC0100204C45442509
:101DA000356458256400000000B589B027A30FCB27
:101DB000CDE90723CDE90501002028490870A420BA
:101DC00037F0D0F9102305AA41F6F071012021F077
:101DD00055FD102301AA41F6F071012021F028FDE4
:101DE0009DF80400012808D11C49087008460178B4
:101DF0001BA01AF0E5FC09B000BDA02037F0B2F935
:101E0000102305AA41F6F071012021F037FD1023BF
:101E100001AA41F6F071012021F00AFD9DF80400AD
:101E2000012808D100200D490870084601780CA04F
:101E30001AF0C6FCDFE7A02037F094F907480178D4
:101E400007A01AF0BDFC00BFD5E7000001020304A3
:101E500005060708090A0B0C0D0E0F10F6110020DD
:101E6000636865636B20636F6D6D756E6963617424
:101E7000696F6E20626F617264206861726420769F
:101E8000657273696F6E3A56312E25640D0A000033
:101E90007047000030B585B013A30FCB01AC0FC461
:101EA000012500241BE001A8021941F6F070211859
:101EB0000123184621F0E2FC41F6F07021180123BD
:101EC0006A46184621F0B4FC01A8005D9DF8001098
:101ED000884202D0002005B030BD601CC4B2102C76
:101EE000E1DB0120F7E70000010203040506070813
:101EF000090A0B0C0D0E0F102DE9FC41074610A12D
:101F000003C9CDE90001002414E01DF804202421B8
:101F100038461AF03DFC242138460CF00BFEC6B2C0
:101F20001DF80400B04203D000252846BDE8FC811E
:101F3000601CC4B2052CE8DB01252846F6E700004A
:101F4000B2046402E90000001CB5684603F0B4FC6A
:101F5000044620461CBD000070B50546002410480C
:101F600000780F49497808440D49897808440C499C
:101F7000C97808440A490979084409494979084453
:101F8000074989790844C4B20548C079A04205D000
:101F9000214604A01AF014FC002070BD0120FCE7CB
:101FA000E6100020636865636B73756D3D25780DE1
:101FB0000A00000010B515200DF002FD10BD000054
:101FC000F0B50246D088CB88984208D0D088CB881C
:101FD000984202DD42F21070F0BD8848FCE750796B
:101FE0004B79984208D050794B79984202DD4FF4F2
:101FF0007A70F1E78248EFE7D078CB78984264D0E6
:10200000D07800F00F00D7783F1107EB870700EB7F
:102010004705C87800F00F00CF783F1107EB87071E
:1020200000EB4706907800F00F0097783F1107EB20
:10203000870700EB4703C3EB03108300507800F0E1
:102040000F0057783F1107EB870700EB4700034469
:10205000C3EB03108300107800F00F0017783F11D6
:1020600007EB870700EB47000344887800F00F0078
:102070008F783F1107EB870700EB4704C4EB041090
:102080008400487800F00F004F783F1107EB870776
:1020900000EB47000444C4EB04108400087800F00F
:1020A0000F000F783F1107EB870700EB4700044450
:1020B000181BAF1B07EB4707FF00C7EB0717BF0055
:1020C000C7EB071700EB870086E790788B7898427C
:1020D00047D0907800F00F0095782D1105EB85051D
:1020E00000EB4503C3EB03108300507800F00F00B2
:1020F00055782D1105EB850500EB45000344C3EB36
:1021000003108300107800F00F0015782D1105EBF7
:10211000850500EB45000344887800F00F008D78BA
:102120002D1105EB850500EB4504C4EB041084007C
:10213000487800F00F004D782D1105EB850500EB78
:1021400045000444C4EB04108400087800F00F003C
:102150000D782D1105EB850500EB45000444181B97
:102160003AE750784B7898422DD0507800F00F0025
:1021700055782D1105EB850500EB4503C3EB0310E6
:102180008300107800F00F0015782D1105EB850500
:1021900000EB45000344487800F00F004D782D1106
:1021A00005EB850500EB4504C4EB041084000878BA
:1021B00000F00F000D782D1105EB850500EB4500B3
:1021C0000444181B08E710780B78984213D0107855
:1021D00000F00F0015782D1105EB850500EB450388
:1021E000087800F00F000D782D1105EB850500EB48
:1021F0004504181BF0E60020EEE60000F0D8FFFFD3
:1022000018FCFFFF70B504460D461646FFF7A2F80E
:10221000324629462046FFF76AFC70BD0FB470B500
:102220000446BDF814002070BDF814000012607060
:10223000BDF81600A070BDF81A00E070BDF81A00D5
:10224000C0F3032020712079BDF81610F02202EAB5
:10225000211108442071BDF818006071BDF81C0000
:10226000A071BDF81C00C0F30320E071E079BDF857
:10227000181002EA21110844E071BDF81E00207216
:10228000BDF822006072BDF8240000F00F00A072BB
:10229000A07ABDF8201002EA01110844A072BDF82E
:1022A0002400C0F30110E072E07ABDF820100C2287
:1022B00002EAA1010844E072E07ABDF8221030225F
:1022C00002EA21110844E072E07ABDF81E10C02233
:1022D00002EAA1010844E07218206074607C9DF855
:1022E0002610062202EA410108446074607C9DF8D1
:1022F000261001F080010844607409A01AF060FA09
:10230000002504E0615D0AA01AF05AFA6D1C122D36
:10231000F8DB09A01AF054FA70BC5DF814FB000059
:102320000D0A65646974203A09200D0A0000000056
:1023300020253032782C20000D0A000000B538200E
:1023400028F0F8FA00BD00B5362028F0F3FA18B9E5
:10235000382028F0EFFA08B1012000BD0020FCE78A
:1023600000B5362028F0E6FA00BD00B5772028F049
:10237000E1FA00BD00B5322028F0DCFA00BD00B55E
:10238000762028F0D7FA00BD00B5372028F0D2FA21
:1023900098B90C2028F0CEFA78B90D2028F0CAFAA6
:1023A00058B9502028F0C6FA38B9742028F0C2FA7B
:1023B00018B9752028F0BEFA08B1012000BD002030
:1023C000FCE77047002001490870704710000020AA
:1023D000002001490870704711000020704710B5B7
:1023E000012000F01BF828B100200BF059FD01205E
:1023F00000F00EF810BD10B5012000F00FF828B164
:1024000000200BF04DFD012000F002F810BD00008F
:102410000149086070470000143C0140014600205B
:102420000022074B1B6803EA0102054B14331B68AB
:102430000B4013B10AB1012000E0002070470000FA
:10244000003C0140002123498279002A3AD00A4603
:10245000126803689A430B461A600A1D12680368E3
:102460009A430B1D1A60027911440A6803681A43E3
:102470000A60184A0832126803689A43154B0833F9
:102480001A601A1D126803689A43124B0C331A60C3
:102490004279102A0ED11A1F126803681A430D4B95
:1024A00008331A601A1D126803681A43094B0C336B
:1024B0001A600DE00749427911440A6803681A431B
:1024C0000A6005E0027911440A6803689A430A60C9
:1024D00070470000003C014001460878A8B9C8795F
:1024E00098B94878FF2810D18878FF280DD1C8788E
:1024F000FF280AD10879FF2807D14879FF2804D19D
:102500008879FF2801D1012070470020FCE72DE9E0
:10251000F04306460F4690461D46079C4FF6FF794E
:10252000308830B1308800EA0909287840F001008D
:102530002870388830B1388800EA0909287840F0D6
:1025400002002870B8F8000038B1B8F8000000EABE
:102550000909287840F004002870484600F0EEFC95
:102560002070287830B1012807D0022816D004281E
:1025700023D114E00020207052E02078012808DDEB
:1025800004202070287840F08000287000203080DF
:1025900003E020784006000E207041E000BF207864
:1025A000032809DD04202070287840F0800028707E
:1025B00000203880A8F8000032E02078012806DDED
:1025C00004202070287840F08000287002E000206D
:1025D00020708146308820EA0900308030B1308890
:1025E00000F0ACFC217801EB40002070388820EA34
:1025F0000900388028B1388800F0A0FC2178084410
:102600002070B8F8000020EA0900A8F8000030B1F6
:10261000B8F8000000F092FC21780844207000BF58
:1026200000BF4846BDE8F0837FB50446002084F82B
:10263000240000250EE0201D405D0DF805001DF86A
:10264000050000F07BFC94F82410084484F8240072
:10265000681CC5B2102DEEDB002524E004F1140047
:10266000465DEEB1684600EBE600007806F0070232
:1026700001219140084068B1684600EBE60000780F
:1026800006F00702012191408843694601EBE6010B
:10269000087006E094F82400401C84F8240000E050
:1026A00003E0681CC5B2102DD8DB00BF7FBD2DE94B
:1026B000F04105460C4617469846A07800F0E00029
:1026C00000F01F01002973D14011082870D2DFE803
:1026D00000F0045E1B0FA1ADAEAF2178481C207046
:1026E0007E5C06F01F00607006F0E000A070A6E0BF
:1026F0006078002805DD05F15C01204600F0BDFC96
:1027000001E00020A0709AE02178481C20707E5CD7
:1027100006F0800060B195F82C00042806DA95F8E0
:102720002C10481C85F82C00E81D465406F07F0646
:10273000B8F1000F05D095F82B203146284600F05F
:1027400017FC05F10B0000EBE600007806F007022D
:10275000012191400843C1B205F10B0000EBE600F6
:10276000017095F82B00102804DA95F82B1005F16C
:102770001B00465495F82B00401C85F82B00607810
:10278000401EC0B2607008B90020A07057E06078A9
:10279000032190FBF1F201FB120050B195F82D00DE
:1027A00038B90020A070207861780844207030E0AB
:1027B0003BE02178481C20707E5C95F82D0000EBF2
:1027C000400105F12E0046542178481C2070795CA8
:1027D00095F82D0000EB400205F12E0010444170E9
:1027E0002178481C2070795C95F82D0000EB4002A0
:1027F00005F12E001044817095F82D00401C85F8DD
:102800002D006078C01E60706078002801DC002018
:10281000A07014E02078385C85F85B000020A07080
:10282000207861780844207009E000BF00BF00BF35
:102830000020A070207861780844207000BF00BF9D
:10284000BDE8F08170B5054600240BE005F16A0093
:10285000065D26B1E91D304601F004F800E003E012
:10286000601CC4B2062CF1DB00BF00240AE0681C27
:10287000065D26B1E91D304600F0F4FF00E003E0FC
:10288000601CC4B2042CF2DB00BF01240EE0632004
:10289000405D0121A140084030B1601E14490E5C2A
:1028A000E91D304600F0DEFF601CC4B2052CEEDBF3
:1028B000002419E00E48015D05F10B0000EBE1007A
:1028C00000780B49095D01F00702012191400840A1
:1028D00040B16320405D611C01228A401043C1B2B7
:1028E00063204155601CC4B2042CE3DB70BD0000C2
:1028F000622200202DE9F04F87B006460F46904631
:10290000994600200690009008F0FF0010B107F1F2
:102910006A0B01E007F1010B06F0800010B14FF0E7
:10292000EC0A01E04FF06C0AC0E008F47F4048B1C7
:10293000B9F1000F02D009EB060411E0002007B046
:10294000BDE8F08F08F0FF021221304603F078FB5B
:1029500008B90020F3E701AC2146122003F060FB28
:10296000207810B96078002872D0002576E02078B1
:10297000C5EBC501504A12F8111088426CD160783D
:10298000C5EBC50102EB41014978884264D1A078CA
:10299000C5EBC50102EB4101897888425CD1E07842
:1029A000C5EBC50102EB4101C978884254D12079B9
:1029B000C5EBC50102EB4101097988424CD1607930
:1029C000C5EBC50102EB41014979884244D1E07968
:1029D000C5EBC50102EB4101C97988423CD1207A9F
:1029E000C5EBC50102EB4101097A884234D1E07A96
:1029F000C5EBC50102EB4101C97A88422CD1607C4C
:102A000000F09800C5EBC50102EB4101097B01F024
:102A10009801884220D1227BA37B03F0F00302EBD4
:102A20000310627BA37B03F00F0302EB03214FF63D
:102A3000FF7202EA001069B190FBF1F2C5EBC50329
:102A4000DFF874C00CEB43035B7B9A4203DA07E0C8
:102A50001CE001E004E000BF681CC5B26B2D86D30A
:102A600000BF6B2D08D2681CC2B20698411CC9B2C7
:102A700006910BF8002012E008F0FF0078B9787991
:102A8000012200998A401043787108E0A07830B99B
:102A9000E078FC2803D1207908B987F875600098A0
:102AA000401CC0B2009006F11200C6B256457FF736
:102AB0003CAF042043E70000801C00202DE9F041DA
:102AC00088B0074600250024082603F04FFA2AE0C4
:102AD00004F12000B04202DC4FF0200802E0301B7D
:102AE00000F0FF0800222021204603F0A9FA18B9BF
:102AF000002008B0BDE8F0816946202003F090FA7C
:102B000000250AE01DF805006119134A515C88424E
:102B100001D00120EDE7681CC5B260190828F1DB7F
:102B200004EB0800C4B2B442D2DB00231A46394693
:102B30003620FFF7DFFE08B90020DAE70022012186
:102B40007E2003F07DFA08B90020D2E73946012043
:102B500003F066FA0420CCE75A2200202DE9F04F5A
:102B60008BB007460E4690464FF00009CA46F8075C
:102B7000040E04F17F00C5B203F0F8F961E004F13E
:102B80002000A84202DC4FF0200B02E0281B00F0DE
:102B9000FF0B3A462021204603F052FA18B90020D4
:102BA0000BB0BDE8F08F03A9202003F039FAB9F18A
:102BB000000F1DD19DF80C00022817D19DF80D00C3
:102BC000032813D14FF0010904208DF804000020E0
:102BD0008DF805008DF8060003A802909DF80E0000
:102BE0002044C5B29DF80F00B07104E00120D7E782
:102BF00000208DF804001BE09DF804002044A8424A
:102C000014DA434603AA01A93046FFF750FD9DF8A8
:102C1000060061280CD196F85C0048B99DF80400C4
:102C2000204486F85C004FF0010A01E02C4603E0E6
:102C30009DF804001C28DFDD00BF9DF8040020443F
:102C4000C4B2AC429BDBBAF1000F0DD000233A4670
:102C500031462846FFF74EFE08B90020A0E730466F
:102C6000FFF7F0FD04209BE7022099E72DE9F047EC
:102C7000074607EB8700C0EB87103049096801EB76
:102C8000400595F85C00801CC0B240F08001A8208F
:102C900024F06EFE8046284600F0D7F92846FFF75C
:102CA0000DFF064603F044F9042E1BD1002000F06E
:102CB00047F80646042E15D1002410E0611CC9B265
:102CC0000C46084601222946FFF748FF064603F056
:102CD0002FF9042E03D1204600F032F8064628785A
:102CE000A042EBDC042E24D195F85C0040F0800477
:102CF00004F07F00E0B1FF21A82024F039FE8146D6
:102D0000A01CC4B22146A82024F032FEA0EB08008B
:102D1000484400F0FF0942462146A82024F094FED2
:102D20004A46FF21A82024F08FFE0420BDE8F0874A
:102D300000BF284600F089F93046F7E7E027002079
:102D400070B50446204600F005F8054603F0F0F89B
:102D5000284670BD2DE9F04788B006464FF00009BF
:102D6000CA460EB1802700E00027F007040E04F1E8
:102D70007F0000F0FF0803F0F9F82FE004F12000D5
:102D8000404501DC202502E0A8EB0400C5B2324634
:102D90002946204603F054F918B9002008B0BDE8D0
:102DA000F0876946284603F03BF96B462A463946C8
:102DB000A82024F031FE7819C7B26019C4B2A94620
:102DC00009E0A9F10100C0B281461DF80000AAEB9C
:102DD000000000F0FF0AB9F1000FF2D14445CDDB4D
:102DE000E6B9681E1DF80090B9F1010F10DD0AEB7D
:102DF0000900401E00F0FF0A01208DF800008DF848
:102E000001A06B4602227E21A82024F005FE0AE0E4
:102E100052467F21A82024F017FE04E05246FF21ED
:102E2000A82024F011FE0420B8E72DE9F041054662
:102E30000E460027002401E0601CC4B2082CFBDB16
:102E4000F007060E2B467F223146A82024F0E4FD31
:102E5000002405E02046611CCCB2285C381AC7B2B9
:102E60007F2CF7DB06F17F00C1B23A46A82024F0A0
:102E7000EBFDBDE8F0812DE9FC4704460D46164602
:102E8000802705F15C084FF00009207802280FD157
:102E9000607803280CD14FF0010904208DF8000060
:102EA00000208DF801008DF802000194A77802E05F
:102EB0000120BDE8FC870FE03346224669462846DC
:102EC000FFF7F5FB9DF80200612805D19DF8000091
:102ED00040F0800085F85C009DF80000B842EBDB14
:102EE00098F8000058B123464FF60172294638463B
:102EF000FFF700FD2846FFF7A5FC0420D9E70120D5
:102F0000D7E770B504460D46284600F09EF800212C
:102F10002046FFF78AFF012104F18000FFF785FFBB
:102F200023464FF47F4229463620FFF7E3FC012277
:102F3000294604F18000FFF79EFF70BD014601F0B5
:102F40000F020A4B985C1A46C1F30313D25C024489
:102F5000D0B2064AC1F30323D25C0244D0B2034A82
:102F600002EB113212780244D0B270476622002080
:102F7000132918D004DC042907D0052928D10BE037
:102F8000142917D0202923D11BE090F87030FF2B93
:102F900001D180F870201CE071231B5CFF2B01D154
:102FA00071231A5415E072231B5CFF2B01D172238D
:102FB0001A540EE073231B5CFF2B01D173231A54A8
:102FC00007E074231B5CFF2B01D174231A5400E02B
:102FD00000BF00BF7047000030B503460A4600201E
:102FE0000BB15C1EE3B200210BE0C3EBC304114D37
:102FF00005EB4404645C5454545C0444E0B24C1C3F
:10300000E1B20C29F1DB04E0545C0444E0B24C1C56
:10301000E1B21129F8DBC3EBC304064D05EB440410
:10302000217B547C04F061040C435474547C0444AC
:10303000E0B230BD801C0020002101E04A1CD1B26A
:1030400090F82D208A42F9DC704710B501467620B1
:103050000A4602E0002302F8013B0300A0F101044C
:10306000A0B2F7D1002005E0FF2401F170031C5449
:10307000431C98B20528F7DB10BDF0B50026037895
:1030800044688778662F4FD008DCA7F16007052FCA
:103090007DD2DFE807F00C1E272D3300672F66D0A6
:1030A000682F75D0692F74D07F2F70D1CFE0E75C87
:1030B000032F0AD15F1CE75D0C2F06D19F1CE75D33
:1030C0001FB961278770032602E0002787704678C2
:1030D000C2E0E75C4F705F1CE75D8F70622787700E
:1030E0000226B9E0E75CCF70632787700126B3E062
:1030F000E75C0F71642787700126ADE00126E25C72
:1031000002F080070FB1B71CFEB202F040070FB10A
:10311000B71CFEB202F0200717B16627877002E0E5
:1031200000278770467897E0E75C4F715F1CE75D8A
:103130008F7102264F7907F080078FB18F7907F0E2
:10314000E00717B16727877010E08F7907F01F0736
:1031500017B16827877009E000278770467805E077
:10316000672787708F7907F0E0078F7174E0E25C62
:10317000012A09DB042A07DCCF794FF0010C0CFA95
:1031800002FC47EA0C07CF718F79203F02E062E032
:103190000EE03DE0FFB28F711F2F07DC8F7917B172
:1031A0006827877002E0002787704678012653E081
:1031B000692787704F7907F06007202F03D14FF6FA
:1031C000FF7502260EE04F7907F06007402F08D107
:1031D0009F1CE75D3D02DF1CE75D2F44BDB2042666
:1031E00000E039E0E75C07F0010707B10D815F1CE3
:1031F000E25D02F0010707B18D8102F0040707B11B
:103200004D818F79B74202DC00278770467823E032
:10321000E25C4FEA221C012707FA0CF7BDB202F06C
:103220000F0222B98F892F438F8101260EE0062AD3
:1032300004D14F892F434F81012607E0082A04D18A
:103240000F892F430F81022600E0012604E00027AA
:103250008770467800E000BF00BF077837440770EA
:103260004778BF1B4770F0BD2DE9F74F8FB004467C
:103270000E46002007900220307003207070A07965
:1032800000F0F000401CF070042500200C908046F7
:103290000BE0E01D10F8080018B10C98401CC0B2FB
:1032A0000C9008F1010000F0FF08B8F1040FF0DB0A
:1032B0004FF0100803E0002008A901F808005FEAB9
:1032C0000800A8F1010101F0FF08F4D1834680460F
:1032D00026E004F11B0010F80890B9F1000F1BD094
:1032E00008A800EBE900007809F0070201219140ED
:1032F000084020B10BF1010000F0FF0B0CE008A822
:1033000000EBE900007809F0070201219140084331
:1033100008A901EBE901087008F1010000F0FF08BD
:10332000B8F1100FD5DB4FF000081FE004F10B00DF
:1033300010F8080008A901F8080008A810F808000B
:1033400080B100270CE008A810F808000121B9405E
:10335000084018B10BF1010000F0FF0B781CC7B258
:10336000082FF0DB08F1010000F0FF08B8F1100FA2
:10337000DCDBBBF1000F6FD0BBF11F0F02DD1F20A4
:103380000E9001E0CDF838B00E98ABEB000000F0E5
:10339000FF0B0E9840F040022846691CCDB2325413
:1033A00000274BE004F11B0010F80790B9F1000F63
:1033B00041D00E98401EC0B20E9006F8059008A8A5
:1033C00000EBE900007809F00702012191408843F1
:1033D00008A901EBE90108700C98F0B14FF0000862
:1033E00017E0E01D10F8080070B149F08001E01D01
:1033F00010F80800814208D10C98401EC0B20C9011
:1034000049F08000705507E006E008F1010000F087
:10341000FF08B8F1040FE4DB00BF119820B1494662
:103420002046079AFFF7A4FD0798401CC0B20790FA
:10343000681CC5B200E003E0781CC7B2102FB1DBF6
:1034400000BF002767E008A810F807A0BAF1000F36
:103450005FD04FF0000859E05FE0012000FA08F06B
:1034600000EA0A00B8B30E9898B9BBF11F0F02DD4D
:103470001F200E9001E0CDF838B00E98ABEB0000A5
:1034800000F0FF0B0E9840F040022846691CCDB2B8
:1034900032540E98401EC0B20E9008EBC70000F0E8
:1034A000FF0906F805900C98F8B100200D9018E07F
:1034B000E01D0D99405C78B149F08002E01D0D9946
:1034C000405C824209D10C98401EC0B20C9049F079
:1034D0008000705508E015E006E00D98401CC0B271
:1034E0000D900D980428E3DB00BF119820B14946E8
:1034F0002046079AFFF73CFD0798401CC0B2079092
:10350000681CC5B208F1010000F0FF08B8F1080F0F
:10351000A3DB781CC7B2102F95DB94F82DA0BAF16D
:10352000000F3AD000BFBAF10A0F02DD4FF00A08CF
:1035300000E0D046AAEB080000F0FF0A08EB4800C4
:10354000C0B240F020022846691CCDB23254002798
:103550001EE007EB470104F12E00425C2846691C7F
:10356000CDB2325407EB470104F12E0008444278F3
:103570002846691CCDB2325407EB470104F12E00F6
:10358000084482782846691CCDB23254781CC7B2F0
:103590004745DEDBBAF1000FC5D194F85B0098B166
:1035A00083222846691CCDB2325494F85B20284609
:1035B000691CCDB2325400222846691CCDB2325467
:1035C0002846691CCDB23254AA46681CC5B20322F3
:1035D0002846691CCDB232540C222846691CCDB253
:1035E000325400222846691CCDB2325484F85C5013
:1035F00010222846691CCDB2325400222846691C8C
:10360000CDB2325410215D20015500215E200155BC
:103610005F20005D18B96020005D00287ED05F202B
:10362000025D2846691CCDB232546020005D00283E
:10363000F4D06020025D2846691CCDB2325463206C
:10364000005D28B96120005D00F080000028E5D011
:1036500000200590069020222846691CCDB23254E5
:103660006120005D00F08000D0B106A805AB04F138
:103670006802911E0090881EFEF749FF04909DF895
:10368000140000F0800028B1C0222846691CCDB289
:1036900032540AE080222846691CCDB2325404E03C
:1036A00000222846691CCDB232546321085DFFF721
:1036B00045FC9DF8181041EA4010C2B22846691C2A
:1036C000CDB2325401270BE06320015D0120B840E8
:1036D000014019B12846691CCDB23754781CC7B2D5
:1036E000052FF1DB6120005D00F08000002876D01E
:1036F0009DF8140000F0800068B3594BD3E9012114
:103700001868DB68CDE90213CDE900029DF81400CA
:1037100000F007001DF81020284600E07DE0691C3D
:10372000CDB232549DF8140000F00700694601EB59
:10373000400042782846691CCDB2325404980212E7
:103740002846691CCDB232540498C2B22846691C7E
:10375000CDB2325400BF00271BE00120B8406421E5
:10376000095B084098B16420015B0120B8408143A7
:1037700064200153082040EA0710C2B22946681CA1
:10378000C5B2725410222846691CCDB23254781C3E
:10379000C7B26420005B08B1102FDEDB002717E002
:1037A0000120B8406621095B084078B16620015BC2
:1037B0000120B84021EA000066210853062000EBF2
:1037C0000710C2B22846691CCDB23254781CC7B269
:1037D0006620005B08B1102FE2DB002717E01BE03A
:1037E0000120B8406821095B084070B16820005B87
:1037F0000121B940884368210853012000EB0710DC
:10380000C2B22846691CCDB23254781CC7B26820B7
:10381000005B08B1102FE3DB00BFB570A5EB0A0019
:10382000401EC0B240F0600006F80A002F4600BFFC
:10383000F05DAAEB000000F0FF0A3800A7F10101DB
:10384000CFB2F5D104E000222846691CCDB2325433
:103850007F2DF8DB86F87FA012B0BDE8F08F000066
:10386000ACAC040810B50A1D02EBE002127800F0BF
:1038700007040123A3401A4092B90A1D02EBE0029B
:10388000127800F007040123A3401A43D3B20A1DA3
:1038900002EBE002137091F82420521C81F82420DE
:1038A00010BD000070B56548407909287BD2DFE87B
:1038B00000F005BE5F6A7B8696A1B1005F48807903
:1038C000092803DA5D48C079062803DB15200CF0CF
:1038D00077F870BD01F0DEFA58498979017001F07E
:1038E000D9FA5649C979417001F0D4FA007807280D
:1038F00002D0082820D114E001F0CCFA457801214B
:10390000284632F0FBFC01F0C5FA457802F046F893
:103910000679294630461FF01BFF06200CF050F8B0
:1039200024E001F0B7FA45780221284632F0E6FC9F
:1039300006200CF045F819E001F0ACFA45780021BA
:10394000284632F0DBFC01F0A5FA457801F0A2FA36
:1039500006782946304639F033FF18B915200CF0A7
:103960002FF802E006200CF02BF800BF00BF62E049
:10397000324880793149C97900EB01242146CC20B5
:1039800037F028FD00BFCC2022F0D4FB04462B48A2
:1039900040792B49C8700C71200A48710020887149
:1039A0000CF07EFA47E042E0244880792349C97947
:1039B00000EB01242146CD2037F00CFD00BFCD20C7
:1039C00022F0B8FB04461D4840791D49C8700C71AF
:1039D000200A4871002088710CF062FA2BE0174829
:1039E00080791649C97900EB01242146CE2037F0B1
:1039F000F1FC00BFCE2022F09DFB04460F48407929
:103A00000F49C8700C71200A4871002088710CF0B1
:103A100047FA10E02FF002FE35F098F918B915209A
:103A20000BF0CEFF02E006200BF0CAFF03E01520EA
:103A30000BF0C6FF00BF00BF00BF4AE7742D002097
:103A4000EE10002010B50120024908700BF07AFA40
:103A500010BD00001000002010B50446432028F0DF
:103A6000F3FD024902A018F0ABFE10BD4165040849
:103A70000A25730D0A00000010B50446432028F003
:103A8000E3FD034903A018F09BFE00F043F910BDCD
:103A9000616504082538780A0D0A000070470000A7
:103AA00010B50446432028F0CFFD024902A018F0CB
:103AB00087FE10BD826504080A25730D0A00000008
:103AC00010B504480168044817F06CFFFF20034953
:103AD000087010BDA011002040440020A811002053
:103AE00010B512A018F06CFE012017F0DDFA30F0CE
:103AF00011F900F091F800F0C1F8F32000F062F83D
:103B00001249134800F092F8002406E04FF0FF310C
:103B1000104840F82410601CC4B2082CF6DB04F0F6
:103B2000D9FA0DA018F04CFE10BD0000456E74725D
:103B30007950726F6772616D4D63752C57696C6C4B
:103B4000205265626F6F74210D0A000026048219ED
:103B5000F8FF070880E100E00D0A4A756D702074D7
:103B60006F20426F6F746C6F61646572206661696B
:103B70006C65640010B500BF15200BF021FF00BF7D
:103B800000BF10BD70B50246012400230C48007A26
:103B9000022812DC0A48007A094D45F82020287ACC
:103BA000451C074E3572034603F1300008703A2079
:103BB000487000208870C8700024204670BD000046
:103BC0006466002001490860704700000C3C024018
:103BD00008201049096801F48031B1F5803F01D116
:103BE000012015E00B49096801F0100109B1052019
:103BF0000EE00849096801F0EF0109B1062007E06D
:103C00000449096801F0020109B1072000E0082019
:103C1000704700000C3C02400348006840F0004040
:103C20000149086070470000103C024030B5024670
:103C30000C46082500F034F80546082D19D10E4829
:103C4000006820F440700C4908600846006840F4A1
:103C5000007008600846006840F0010008601460C9
:103C600000F01EF805460448006820F001000249F3
:103C70000860284630BD0000103C0240054800683E
:103C800000F0004028B1044802490C39086003489C
:103C900008607047103C024023016745AB89EFCDB7
:103CA00008B508200090FFF793FF009002E0FFF7AF
:103CB0008FFF00909DF800000128F8D09DF80000CB
:103CC00008BD10B504462146B82000F023FE10BD03
:103CD00070B50546902000F089FD044604F0FE040E
:103CE000012D02D144F0010401E004F0FE0421465C
:103CF000902000F00FFE70BD024612B1044800781B
:103D0000107011B10248407808700148007870477F
:103D1000105500201CB5012120200AF08FFD002045
:103D20008DF8070002208DF8050000208DF80600B0
:103D30008DF804004FF40060009069460A4800F0D6
:103D40003BFE4FF4806000906946074800F034FE67
:103D50004FF40061044800F0A5FE4FF48061024872
:103D600000F0A0FE1CBD0000001002401CB50121A7
:103D700010200AF063FD00208DF8060001208DF868
:103D8000040000208DF8070002208DF80500800255
:103D9000009069460A4800F00FFE4FF480600090E2
:103DA0006946074800F008FE4FF40061044800F03F
:103DB00077FE4FF48061024800F074FE1CBD0000E5
:103DC0000010024070B5002000F010FD04460120F4
:103DD00000F00CFD0546024804704570204670BD99
:103DE00010550020042801DA0149087070470000CE
:103DF000A414002001B58CB0FE4800784007000EE6
:103E000006900C98A0F5A97012287DD2DFE800F08A
:103E10004C4F5150FEFDFCFBFAF909F8F7F6F5F4AA
:103E2000F3F2F548F3490978405C00283BD1F348A8
:103E3000F0490978405C019006981530C0B20090B6
:103E4000019900F067FDEE48EA490978405C01906D
:103E500006981630C0B20090019900F05BFDE94869
:103E6000E4490978405C019006981730C0B2009090
:103E7000019900F04FFDE448DE490978405C01906B
:103E800006981830C0B20090019900F043FDDF4859
:103E9000D8490978405C019006981930C0B200906A
:103EA000019900F037FD00BF24F0DCF900BF00BF2E
:103EB00000BFD748007800287ED10120D44908707F
:103EC000D448CC490978405C019006981230C0B2C1
:103ED0000090019900F01EFDCF48C649097810F8FE
:103EE0002100019006982830C0B20090019900F09E
:103EF00011FDC948BF49097830F82100C0F30720F7
:103F000001900698293000E0D3E3C0B200900199F7
:103F100000F000FDC148B749097810F82100019070
:103F200006982A30C0B20090019900F0F3FCBB481B
:103F3000B049097830F82100C0F3072001900698B5
:103F40002B30C0B20090019900F0E4FCAB48A949C5
:103F50000978405C019006981530C0B20090019934
:103F600000F0D8FCA648A3490978405C0190069867
:103F70001630C0B20090019900F0CCFCA1489D49D8
:103F80000978405C019006981730C0B20090019902
:103F900000F0C0FC9C4897490978405C0190069865
:103FA0001830C0B20090019900F0B4FC97489149D4
:103FB0000978405C019000E004E106981930C0B235
:103FC0000090019900F0A6FC95488A49097810F8FC
:103FD0002100019006982030C0B20090019900F0B5
:103FE00099FC8F488349097830F82100C0F30720F5
:103FF00001900CE0B5E2A7E299E28BE27DE2D1E12B
:10400000C3E112E3F4E2D6E2B8E2A1E183E106986B
:104010002130C0B20090019900F07CFC81487549C4
:10402000097810F82100019006982230C0B2009063
:10403000019900F06FFC7B486E49097830F8210047
:10404000C0F30720019006982330C0B20090019978
:1040500000F060FC74486749097810F8210001906D
:1040600006982430C0B20090019900F053FC6E48CD
:104070006049097830F82100C0F3072001900698C4
:104080002530C0B20090019900F044FC67485949BE
:10409000097810F82100019006982630C0B20090EF
:1040A000019900F037FC61485249097830F8210045
:1040B000C0F30720019006982730C0B20090019904
:1040C00000F028FC5A480078059059480088C0F351
:1040D0000720049057480078039056480088C0F3A2
:1040E000072002909820059900F014FC992004996B
:1040F00000F010FC9A20039900F00CFC9B20029920
:1041000000F008FC4A480079059049488088C0F3CF
:104110000720049047480079039046488088C0F300
:10412000072002909C20059900F0F4FB9D20049943
:1041300000F0F0FB9E20039900F0ECFB9F20029919
:1041400000F0E8FB3A48007A059039480089C0F34E
:10415000072004903748007A039036480089C0F35E
:1041600007200290A020059900F0D4FBA12004991B
:1041700000F0D0FBA220039900F0CCFBA320029911
:1041800000F0C8FB2A48007B059029488089C0F3CD
:10419000072004902748007B039026488089C0F3BD
:1041A00007200290A420059900F0B4FBA5200499F3
:1041B00000F0B0FBA620039900F0ACFBA720029909
:1041C00000F0A8FB1C480B490978405C1B49085CBF
:1041D0000B901B4807490978405C1A49085C0A9013
:1041E000194804490978405C1849085C0990184945
:1041F00000482FE0A4140020B5140020BD140020B6
:10420000C1140020C9140020CD140020D1140020B6
:10421000A3140020B914002090540020A0540020C2
:10422000D0540020E0540020F0540020005500201D
:10423000B0540020C0540020A5140020D914002040
:10424000B1140020DB140020AD140020E114002084
:10425000A91400200078085CFE49085C0890FE481C
:10426000FE490978405C40B90220FD49FB4A1278BA
:104270008854FC488078079014E0F949F7480078A2
:10428000085C40B1F5480078085C012803D00020A4
:10429000F24A12788854F248F0490978405CF149B2
:1042A000085C0790DDE90A1008430999084308995A
:1042B000084307990843019006981130C0B2009056
:1042C000019900F027FBE448E4490978405C0128A3
:1042D00011D10B9880281DD1E04801780120884039
:1042E000E14909780843E0490870084601789620BA
:1042F00000F010FB0EE0D9480078401C01218140FD
:10430000D94800788843D849087008460178962033
:1043100000F000FBCEE1D548D049097810F8210023
:10432000019006982830C0B20090019900F0F2FA8E
:10433000CE48CA49097830F82100C0F3072001901F
:1043400006982930C0B20090019900F0E3FAB1E17B
:10435000C748C249097810F82100019006982A3010
:10436000C0B20090019900F0D5FAC148BB49097864
:1043700030F82100C0F30720019006982B30C0B21E
:104380000090019900F0C6FA94E1BA48B34909785F
:10439000405C019006981230C0B20090019900F084
:1043A000B9FA87E1B448AD490978405C20BBFF20E9
:1043B000B249AA4A12788854FF21B148A74A127814
:1043C0008154FF20AF49A54A1278885406981730C7
:1043D000C0B2FF21019000F09DFA06981830C0B2DB
:1043E000FF21019000F096FA06981930C0B2FF2123
:1043F000019000F08FFA7FE09F4898490978405C6F
:10440000012824D1FF219D48944A1278815400212B
:104410009B48924A1278815400209A498F4A127818
:10442000885406981730C0B2FF21019000F072FA4C
:1044300006981830C0B20021019000F06BFA06987F
:104440001930C0B20021019000F064FA54E08A48AB
:1044500082490978405C022824D1002087497F4A9C
:1044600012788854FF2186487C4A127881540020B3
:1044700084497A4A1278885406981730C0B20021CD
:10448000019000F047FA06981830C0B2FF21019061
:1044900000F040FA06981930C0B20021019000F0F7
:1044A00039FA29E074486D490978405C032823D122
:1044B00000217248694A1278815400207049674A85
:1044C00012788854FF216F48644A12788154069804
:1044D0001730C0B20021019000F01CFA0698183085
:1044E000C0B20021019000F015FA06981930C0B250
:1044F000FF21019000F00EFADCE06048574909788E
:10450000405C019006981730C0B20090019900F00D
:1045100001FACFE05A4851490978405C0190069869
:104520001830C0B20090019900F0F4F9C2E055488B
:104530004A490978405C019006981930C0B2009051
:10454000019900F0E7F9B5E04F4844490978405C2B
:10455000019006981530C0B20090019900F0DAF988
:10456000A8E04A493D480078085C0190069816305A
:10457000C0B20090019900F0CDF99BE04449374862
:10458000007811F82000019006982030C0B2009009
:10459000019900F0BFF93E493048007831F8200019
:1045A000C0F30720019006982130C0B20090019915
:1045B00000F0B0F97EE037492848007811F8200073
:1045C000019006982230C0B20090019900F0A2F943
:1045D00030492248007831F82000C0F307200190CC
:1045E00006982330C0B20090019900F093F961E081
:1045F00029481A49097810F82100019006982430BA
:10460000C0B20090019900F085F923491348007861
:1046100031F82000C0F30720019006982530C0B281
:104620000090019900F076F944E01C490B480078AD
:1046300011F82000019006982630C0B20090019930
:1046400000F068F915480549097830F82100C0F3F1
:10465000072025E0DD140020A5140020A41400206C
:10466000B5140020E4140020E7140020905400202A
:10467000A0540020B9140020C5140020C914002043
:10468000CD140020D1140020BD140020C11400203E
:10469000D0540020E0540020F054002000550020A9
:1046A000019006982730C0B20090019900F032F9CD
:1046B00000E000BF00BF0DB000BD00002DE9F05FBD
:1046C00022F00CFF044622F009FF417904F15D005D
:1046D00000EB410B22F002FF80791BF8008022F0F2
:1046E000FDFE417904F1590000EB410B22F0F6FE8A
:1046F00080791BF8007022F0F1FE417904F19800F6
:1047000000EBC10B22F0EAFE80795BF8209022F0EA
:10471000E5FE417904F1A80000EBC10B22F0DEFEBA
:1047200080795BF820A022F0D9FE417904F1740071
:1047300000EBC10B22F0D2FE80795BF8206022F002
:10474000CDFE417904F1640000EBC10B22F0C6FEFE
:1047500080795BF820501D481D49097840F8216098
:104760001C481B49097840F8215022F0B7FE4179D6
:1047700004F1340050F8210048441749144A1278D3
:1047800041F8220022F0AAFE417904F13C0050F8E1
:104790002100504411490E4A127841F8220008FBCA
:1047A00006F00F490A4A127841F8220007FB05F08B
:1047B0000C49074A127841F8220000200A49087083
:1047C0004FF4A970FFF716FBBDE8F09F905400204E
:1047D000A4140020A0540020D0540020E054002055
:1047E000F054002000550020A314002010B504460A
:1047F00022464021002022F089FF10BD10B5102074
:10480000FFF7F4FF044604F08000802801D1012066
:1048100010BD0020FCE7000010B500202A490870F8
:104820002A490870002436E0002029490855294902
:104830000855294908552820284941F824002849C5
:1048400041F8240001202749085500202649085531
:104850001E20264908550120254908552549085597
:10486000FF202549085525490855254908554FF485
:104870004870244941F824004FF41670224941F849
:1048800024004FF4C870214941F82400204941F820
:104890002400601CC4B2042CC6DB0021102000F0F0
:1048A00039F80421112000F035F80421312000F0FE
:1048B00031F80421512000F02DF80421712000F07E
:1048C00029F8FFF77FFA10BDA3140020A4140020DC
:1048D000A5140020A9140020AD140020905400203D
:1048E000A0540020B1140020B5140020B9140020F9
:1048F000BD140020C1140020C9140020CD140020D4
:10490000D1140020D0540020E0540020F0540020A6
:104910000055002070B504460D462B462246402126
:10492000002022F002FF70BD70B505461020FFF791
:104930005DFF044604F03F04012D02D144F08004E1
:1049400001E044F0400421461020FFF7E3FF70BD72
:1049500010B50446C4EB841000EB40004FF4C47261
:1049600002EB800081B24FF43D73024A01201EF039
:1049700085FF10BDA849002001200149087070473B
:104980005719002070B505461020FFF72FFF044689
:1049900004F0CF04022D02D144F0100406E0012DF2
:1049A00002D144F0200401E044F0300404F0FE01A0
:1049B0001020FFF7AFFF70BDF0B50A4600210023BD
:1049C000002400BF3DE0012505FA01F3156805EA62
:1049D00003049C4234D105684F000326BE40B54312
:1049E000056015794E00B5400668354305601579B8
:1049F000012D02D01579022D16D185684F000326AE
:104A0000BE40B543856055794E00B5408668354354
:104A10008560456801268E40B543456045689679B6
:104A20008E40B6B235434560C5684F000326BE4090
:104A3000B543C560D5794E00B540C6683543C560FD
:104A4000491C1029BFD3F0BDF0B5002300244D0749
:104A5000ED0E02FA05F3CE1000F1200555F82650B0
:104A60004E07F70E0F26BE40B543CF1000F12006CB
:104A700046F82750CE1000F1200555F8265045EA9B
:104A80000304CE1000F1200545F82640F0BD024693
:104A9000002013690B400BB1012000E0002070479B
:104AA00041837047018370477CB50446224616490E
:104AB00016A017F085FE02208DF8050001208DF864
:104AC000040000208DF8060001208DF8070034B99D
:104AD0000121102009F0F2FE04200090114D6946DA
:104AE0002846FFF769FF009881B22846FFF7D8FFF4
:104AF000642011F027FE009881B22846FFF7D2FF0C
:104B0000022011F01FFE7CBD647304085B677332E2
:104B10003937315D257320706F7274783D25640DCF
:104B20000A000000001002402DE9F04F8FB08046CF
:104B3000894614461D46DDE918670022A24B30461F
:104B40003946FBF783FE01D200269F4F0022134611
:104B500030463946FBF762FE01D2002637469B4AB3
:104B60009B4B40464946FBF759FE04D200200146C4
:104B70000FB0BDE8F08F954A954BDDE91A01FBF7C0
:104B800065FE7DD200BF934A934B20462946FBF732
:104B900045FE08D222462B464046494629F032FAC5
:104BA000CDE906016FE000228C4B20462946FBF739
:104BB000BEFC02460B46CDE9000100208749FBF709
:104BC0002EFD22462B46CDE9040130463946FBF73F
:104BD00026FDCDE90201DDE9042329F013FA82461E
:104BE0008B4632463B4650465946FBF7A6FCCDE97C
:104BF0000C0122462B465046594629F003FACDE9CE
:104C00000A0100207549DDE90A23FBF790FCCDE994
:104C1000040100207149DDE90C23FBF788FCCDE994
:104C20000201DDE90423FBF7FAFCCDE90801524655
:104C30005B4640464946FBF7F1FD08D232463B460B
:104C400040464946FBF779FCCDE906011BE02246C8
:104C50002B464046494629F0D5F9CDE90001DDE96A
:104C60000A23FBF764FCCDE90201DDE90823FBF729
:104C700064FCCDE90401DDE90C23FBF7B7FB00E0A0
:104C800014E0CDE9060100205449DDE91A23FBF7C1
:104C90004EFCCDE90201DDE90623FBF74EFCCDE930
:104CA0000401DDE91A23FBF7A1FB61E7494A4A4BFE
:104CB00020462946FBF7B2FD1AD200204749DDE91C
:104CC0001A23FBF734FC22462B46CDE9040140466B
:104CD000494629F097F9CDE90201DDE90423FBF704
:104CE0002CFCCDE90601DDE91A23FBF77FFB3FE74A
:104CF00000223A4B20462946FBF719FC02460B4698
:104D0000CDE9020100203549FBF789FC22462B46FC
:104D1000CDE9060130463946FBF781FCCDE90401B7
:104D2000DDE9062329F06EF982468B4632463B4682
:104D300050465946FBF701FCCDE90C0122462B46B3
:104D40005046594629F05EF9CDE90A010020234971
:104D5000DDE90A23FBF7EBFBCDE9060100201F4943
:104D6000DDE90C23FBF7E3FBCDE90401DDE90623D4
:104D7000FBF755FCCDE9080152465B4640464946E3
:104D8000FBF74CFD06D232463B4640464946FBF710
:104D9000D4FBEDE622462B464046494629F032F93F
:104DA000CDE90201DDE90A23FBF7C1FBCDE90401EE
:104DB000DDE90823FBF7C1FBCDE90601DDE90C23A2
:104DC000FBF714FBD4E600000000E03FF168E38845
:104DD000B5F8E43E9A9999999999F13F0000F03F0E
:104DE00010B53BF00AFD10BD00B500F0D7FD00F591
:104DF000067000BD00B500F0D1FD00F5007000BDEB
:104E000010B53BF03FFD00F0C9FD00F10A0400F0D1
:104E1000C5FD90F82000205C10BD000030B50446B0
:104E2000562C14DCC4EBC400134901EB400040884D
:104E3000C4EBC401104A02EB410189884843C4EB2A
:104E4000C40102EB4101897A00FB01F511E07D2CE0
:104E500003D11D20FFF7E2FF30BD0748B0F89801ED
:104E60000549B1F89A114843034991F8A01100FB94
:104E700001F52846F0E70000BC65040810B50446BB
:104E80004FF48073224641F6644101201EF0D0FCAD
:104E900010BD0000004870470A0000203030017942
:104EA000104A1170017809060F4A116041781268A2
:104EB00002EB01410C4A11608178126802EB01217A
:104EC000094A1160C17812681144074A1160017CD7
:104ED0000902064A1160417C303812681144034AC5
:104EE00011607047AA110020AC110020B4110020FD
:104EF00010B53BF0E3FC10BD10B53BF0F5FC10BD68
:104F000038B50446204600F0C7FB0090BDF800000D
:104F100038BD10B50446042C06DA00F03BFD3230F3
:104F200000EB0410C07B10BD0020FCE710B5044668
:104F300000F030FD323000EB0410C08810BD10B519
:104F4000044600F027FD323000EB0410808910BDCC
:104F500010B5044600F01EFD323000EB041000894D
:104F600010BD10B5044600F015FD323000EB041002
:104F7000408910BD10B5044600F00CFD323000EB46
:104F80000410007810BD10B5044600F003FD323067
:104F900004F0030100EB0110807810BD10B5044649
:104FA00000F0F8FC323000EB0410C07810BD10B5F2
:104FB0000446E0B210F025FB10BD10B50446E0B287
:104FC00010F02BFB10BD10B5044600F0E3FC3230AE
:104FD00000EB0410007910BD10B50446562C0CDC13
:104FE0007C2C03DB20F0CEF980B210BDC4EBC400F2
:104FF000074901EB4000C088F7E77D2C03D11D2055
:10500000FFF7EAFFF1E70248B0F89C01EDE7000086
:10501000BC65040870B50446562C0CDC7C2C03DB04
:1050200020F0C2F980B270BDC4EBC4000A4901EBA4
:105030004000457B08E07D2C03D11D20FFF7EAFFEF
:10504000F1E7054890F8A35105F0010008B10120EF
:10505000E9E70020E7E70000BC65040810B5044656
:10506000562C0CDC7C2C03DB20F092F980B210BDB6
:10507000C4EBC400074901EB4000C07AF7E77D2C80
:1050800003D11D20FFF7EAFFF1E7024890F8A101E4
:10509000EDE70000BC65040810B50446562C0CDC96
:1050A0007C2C03DB20F07AF980B210BDC4EBC40085
:1050B000074901EB40004088F7E77D2C03D11D2014
:1050C000FFF7EAFFF1E70248B0F89801EDE70000CA
:1050D000BC650408014600224FF44070052900DD3C
:1050E0000021124B5A5C202A12D006DC022A0CD076
:1050F0000A2A16D01D2A17D104E0802A0BD0812A53
:1051000012D10BE04FF440700EE04FF434700BE01E
:105110004FF4806008E04FF4407005E04FF42070D9
:1051200002E04FF4876000BF00BF704748030020D3
:105130002DE9F04704460D4616462778601C0446C4
:1051400090F80080A8F1A10000F0FF08A7F1A100ED
:10515000C7B25E2000FB078000FB06F9022011F0B9
:1051600033F93246494628460AF0E4F9022011F0A4
:105170001DF9BDE8F08710B522F0BCF8C41D22F07F
:10518000B9F8807B205C10BD10B5044622F0B2F85F
:10519000C01D005D0349086022F0ACF8C01D005D31
:1051A00010BD00003C00002010B522F0A3F8807B69
:1051B00018B122F09FF8C07910BD22F09BF8007A58
:1051C000FAE710B500F0EAFB441D00F0E7FB90F8A9
:1051D0002000205C10BD00000048704779030020CB
:1051E000F0B5074600261FE0304602F087FF034671
:1051F00003B917E05C6804B914E000250EE0C5EBC4
:10520000C50004EB80008068B84205D1C5EBC5003D
:1052100004EB8000407DF0BD681CC5B25878A84200
:10522000EDDC00BF701CC6B2032EDDDD0720F2E707
:1052300010B523F0FBFF10BD3EB504460D464FF000
:10524000FF3002900020009002AB782229460190A6
:10525000204600F083F81149884201DC78203EBDE9
:105260000020009002AB3C2229460190204600F02D
:1052700075F80A49884201DC3C20F0E700200090E4
:1052800002AB322229460190204600F067F803491C
:10529000884201DC3220E2E71E20E0E7006889094D
:1052A00010B500F07BFB007910BD10B500F076FB67
:1052B0000446207900F07AFB10BD10B500F06AFBBF
:1052C00090F8920010BD10B500F068FB04462079FC
:1052D000FFF716FE10BD000070B50B4800780928D6
:1052E0000ADA0A480849097850F82140084806496E
:1052F000097830F8115001E0012070BDA9B22046B4
:10530000FFF7C5FBF9E70000E814002074730408F8
:10531000BC73040870B50B48007809280ADA0A48FB
:105320000849097850F8214008480649097830F8BA
:10533000115001E0012070BDA9B22046FFF7A7FB84
:10534000F9E70000E814002098730408CE730408FD
:1053500010B500F023FB807F10BD00002DE9F04F59
:105360008BB004460D4616461F46DDE91489B4F598
:10537000487F07D1B5F5167F04D13C2E02D100201D
:105380003860E0E0B4F5487F07D1B5F5167F04D169
:10539000782E02D10C203860D5E0B4F5806F04D1AE
:1053A000B5F5407F01D13C2E07D0B4F5806F07D111
:1053B000B5F5407F04D1322E02D101203860C2E021
:1053C000B4F5A06F04D1B5F5707F01D13C2E07D0A4
:1053D000B4F5A06F07D1B5F5707F04D1322E02D19C
:1053E00002203860AFE0B4F5A06F04D1B5F5806F4E
:1053F00001D13C2E07D0B4F5A06F07D1B5F5806F71
:1054000004D1322E02D1032038609CE040F2565085
:10541000844204D1B5F5407F01D13C2E08D040F242
:105420005650844207D1B5F5407F04D1322E02D1C7
:105430000420386087E0B4F5B46F04D1B5F5617F1E
:1054400001D13C2E07D0B4F5B46F07D1B5F5617F1B
:1054500004D1322E02D10520386074E0B4F5B46F67
:1054600005D140F21A40854201D13C2E08D0B4F556
:10547000B46F08D140F21A40854204D1322E02D1D5
:10548000062038605FE0B4F5C86F04D1B5F5617FE0
:1054900001D13C2E07D0B4F5C86F07D1B5F5617FB7
:1054A00004D1322E02D1072038604CE0B4F5D26F1F
:1054B00005D140F21A40854201D13C2E08D0B4F506
:1054C000D26F08D140F21A40854204D1322E02D167
:1054D0000820386037E0B4F5F06F04D1B5F5876F78
:1054E00001D13C2E07D0B4F5F06F07D1B5F5876F29
:1054F00004D1322E02D10920386024E0B4F5F06FD7
:1055000004D1B5F5966F01D13C2E07D0B4F5F06FFC
:1055100007D1B5F5966F04D1322E02D10A2038603A
:1055200011E0B4F5006F04D1B5F5906F01D13C2EB8
:1055300007D0B4F5006F06D1B5F5906F03D1322EC8
:1055400001D10B2038603868B0F1FF3F2CD03868AB
:1055500000EB80004D4901EB800040880A903868DC
:1055600000EB800001EB800080890990B8F1000F0A
:1055700002D0B9F1000F08D10A98204409992944B2
:10558000484370430BB0BDE8F08F0998A8F80000BD
:105590000A98A9F80000B9F800002044B8F80010F3
:1055A000294448437043EDE7B8F1000F14D0B9F136
:1055B000000F11D04B46424629462046FCF786F89C
:1055C0000890089840B1B9F800002044B8F80010DD
:1055D000294448437043D5E74FF02A0B4FF0080A9F
:1055E0000020079005EB0B00704306900022284B2B
:1055F0001046284928F006FD0390FBF77FF8059038
:105600000698FBF77BF800900599FAF77CFE02906C
:10561000069904FB01F0FBF771F801900299FAF783
:10562000A7FE0390FBF796F80790079830F0D8FB99
:1056300030301FFA80FA50464FEAEA710AEB1171D6
:1056400009114FF6FF7202EA011A0AEB0400B0F5E5
:10565000D36F03DAC4F5D3601FFA80FABAF1D00F22
:1056600001DD4FF0D00A04EB0A0005EB0B014843C3
:1056700070430490B8F1000F01D0A8F800B0B9F160
:10568000000F01D0A9F800A004987BE7FC010020DE
:1056900000001840000024403EB50446562C18DA9D
:1056A000552C0BDB1FF04CFE80B2ADF808001FF04C
:1056B00041FE80B2ADF80A0002983EBDC4EBC400C2
:1056C0000C4911F810000C4901EB800000680290B1
:1056D000F3E77D2C04D11D20FFF7DEFF0190ECE7FE
:1056E000044890F89601044901EB8000006800909E
:1056F000E3E70000BC650408F811002010B500F0D5
:105700004DF900F17E0400F049F990F8200000EB1B
:10571000800101EBC00004EB8000408B10BD10B590
:1057200000F03CF990F82000A8B900F037F900F13A
:105730007E0400F033F990F8200000EB800101EBCB
:10574000C00004EB8000B0F9144000F027F990F895
:10575000EE01201A10BD00F021F900F17E0400F0E6
:105760001DF990F8200000EB800101EBC00004EB74
:105770008000B0F91400EDE710B500F00FF990F8D3
:105780002000A8B900F00AF900F17E0400F006F943
:1057900090F8200000EB800101EBC00004EB8000DA
:1057A000B0F9164000F0FAF890F8EF01201A10BD99
:1057B00000F0F4F800F17E0400F0F0F890F820001A
:1057C00000EB800101EBC00004EB8000B0F9160093
:1057D000EDE710B500F0E2F800F17E0400F0DEF82D
:1057E00090F8200000EB800101EBC00004EB80008A
:1057F000008B10BD10B500F0D1F890F8500010BD2E
:105800000148007870470000C106002000B500F094
:10581000C1F890F8910000BD014631B1012907D0CF
:10582000022908D003290CD108E0074A107809E0C2
:10583000064A107806E0064A107803E0054A107818
:1058400000E000BF00BF7047D6110020D711002034
:10585000D8110020D911002010B50446562C03DAC7
:105860000C4850F8240010BD7E2C03D10948D0F814
:105870005C01F8E77F2C04D140F2C51023F068FCEE
:10588000F1E77D2C03D10348D0F86401EBE702482F
:105890000068E8E7706A0408E012002010B53BF0E9
:1058A00025FA10BD0149086870470000401100202A
:1058B00000487047345000201CB504460722694652
:1058C00002202DF015FB9DF8000000F0800008B1CB
:1058D00000201CBD9DF8000020709DF8010000F024
:1058E0007F0060709DF8020000F03F00A0709DF8FE
:1058F000030000F03F00E0709DF8040000F0070096
:1059000020719DF8050000F01F0060719DF80500F2
:1059100000F0800028B19DF8060000F5C850E08036
:1059200004E09DF8060000F50050E0800120D0E77B
:1059300030B585B00446002514E00122002109E0BD
:10594000605C124B03EB05135B5C984201D00022B4
:1059500002E0491C1029F3DB00BF12B1284605B054
:1059600030BD6D1C042DE8DBE079A17962792379E3
:10597000CDE90132CDE90310E0780090A378627898
:105980002178034816F01CFFFF20E8E7F0640408C4
:1059900030DD040800487047404800200048704748
:1059A000A8490020004870471C51002038B5044623
:1059B0002046FFF771FE0090BDF8020038BD0000E0
:1059C00010B50446562C0CDC7C2C03DB1FF034FE97
:1059D00080B210BDC4EBC400074901EB4000008950
:1059E000F7E77D2C03D11D20FFF7EAFFF1E702481E
:1059F000B0F89E01EDE70000BC65040870B50446F0
:105A0000562C0CDC7C2C03DB1FF0CEFC80B270BD6E
:105A1000C4EBC4000A4901EB4000457B08E07D2C43
:105A200003D11D20FFF7EAFFF1E7054890F8A351E5
:105A300005F0020008B10120E9E70020E7E70000D7
:105A4000BC65040810B50446562C0CDC7C2C03DB2A
:105A50001FF0F8FD80B210BDC4EBC400074901EB94
:105A60004000007BF7E77D2C03D11D20FFF7EAFF04
:105A7000F1E7024890F8A201EDE70000BC650408D8
:105A800010B50446562C0CDC7C2C03DB1FF0E0FD2B
:105A900080B210BDC4EBC400074901EB4000808810
:105AA000F7E77D2C03D11D20FFF7EAFFF1E702485D
:105AB000B0F89A01EDE70000BC65040810B53BF0B2
:105AC00049F8FFF76BFFB0F9400010BD10B53BF08F
:105AD00053F8FFF763FFB0F9420010BD10B53BF07B
